{
  "_format": "hh-sol-artifact-1",
  "contractName": "DAO",
  "sourceName": "contracts/DAO.sol",
  "abi": [
    {
      "inputs": [
        {
          "internalType": "contract DAOToken",
          "name": "_daoToken",
          "type": "address"
        }
      ],
      "stateMutability": "nonpayable",
      "type": "constructor"
    },
    {
      "inputs": [
        {
          "internalType": "address",
          "name": "owner",
          "type": "address"
        }
      ],
      "name": "OwnableInvalidOwner",
      "type": "error"
    },
    {
      "inputs": [
        {
          "internalType": "address",
          "name": "account",
          "type": "address"
        }
      ],
      "name": "OwnableUnauthorizedAccount",
      "type": "error"
    },
    {
      "anonymous": false,
      "inputs": [
        {
          "indexed": true,
          "internalType": "uint256",
          "name": "proposalId",
          "type": "uint256"
        },
        {
          "indexed": false,
          "internalType": "string",
          "name": "title",
          "type": "string"
        },
        {
          "indexed": false,
          "internalType": "string",
          "name": "description",
          "type": "string"
        }
      ],
      "name": "NewProposal",
      "type": "event"
    },
    {
      "anonymous": false,
      "inputs": [
        {
          "indexed": true,
          "internalType": "address",
          "name": "previousOwner",
          "type": "address"
        },
        {
          "indexed": true,
          "internalType": "address",
          "name": "newOwner",
          "type": "address"
        }
      ],
      "name": "OwnershipTransferred",
      "type": "event"
    },
    {
      "anonymous": false,
      "inputs": [
        {
          "indexed": true,
          "internalType": "uint256",
          "name": "proposalId",
          "type": "uint256"
        },
        {
          "indexed": false,
          "internalType": "address",
          "name": "voter",
          "type": "address"
        },
        {
          "indexed": false,
          "internalType": "bool",
          "name": "vote",
          "type": "bool"
        },
        {
          "indexed": false,
          "internalType": "uint256",
          "name": "amount",
          "type": "uint256"
        }
      ],
      "name": "Vote",
      "type": "event"
    },
    {
      "inputs": [
        {
          "internalType": "string",
          "name": "_title",
          "type": "string"
        },
        {
          "internalType": "string",
          "name": "_description",
          "type": "string"
        },
        {
          "internalType": "uint256",
          "name": "_minVote",
          "type": "uint256"
        },
        {
          "internalType": "uint256",
          "name": "_endtime",
          "type": "uint256"
        }
      ],
      "name": "createProposal",
      "outputs": [],
      "stateMutability": "nonpayable",
      "type": "function"
    },
    {
      "inputs": [],
      "name": "daoToken",
      "outputs": [
        {
          "internalType": "contract DAOToken",
          "name": "",
          "type": "address"
        }
      ],
      "stateMutability": "view",
      "type": "function"
    },
    {
      "inputs": [],
      "name": "owner",
      "outputs": [
        {
          "internalType": "address",
          "name": "",
          "type": "address"
        }
      ],
      "stateMutability": "view",
      "type": "function"
    },
    {
      "inputs": [
        {
          "internalType": "uint256",
          "name": "",
          "type": "uint256"
        }
      ],
      "name": "proposals",
      "outputs": [
        {
          "internalType": "string",
          "name": "title",
          "type": "string"
        },
        {
          "internalType": "string",
          "name": "description",
          "type": "string"
        },
        {
          "internalType": "uint256",
          "name": "minVote",
          "type": "uint256"
        },
        {
          "internalType": "uint256",
          "name": "endTime",
          "type": "uint256"
        },
        {
          "internalType": "uint256",
          "name": "yesVotes",
          "type": "uint256"
        },
        {
          "internalType": "uint256",
          "name": "noVotes",
          "type": "uint256"
        }
      ],
      "stateMutability": "view",
      "type": "function"
    },
    {
      "inputs": [],
      "name": "renounceOwnership",
      "outputs": [],
      "stateMutability": "nonpayable",
      "type": "function"
    },
    {
      "inputs": [],
      "name": "total",
      "outputs": [
        {
          "internalType": "uint256",
          "name": "",
          "type": "uint256"
        }
      ],
      "stateMutability": "view",
      "type": "function"
    },
    {
      "inputs": [
        {
          "internalType": "address",
          "name": "newOwner",
          "type": "address"
        }
      ],
      "name": "transferOwnership",
      "outputs": [],
      "stateMutability": "nonpayable",
      "type": "function"
    },
    {
      "inputs": [
        {
          "internalType": "uint256",
          "name": "_proposalId",
          "type": "uint256"
        },
        {
          "internalType": "bool",
          "name": "_support",
          "type": "bool"
        }
      ],
      "name": "vote",
      "outputs": [],
      "stateMutability": "nonpayable",
      "type": "function"
    },
    {
      "stateMutability": "payable",
      "type": "receive"
    }
  ],
  "bytecode": "0x60806040523480156200001157600080fd5b50604051620017fa380380620017fa833981810160405281019062000037919062000249565b33600073ffffffffffffffffffffffffffffffffffffffff168173ffffffffffffffffffffffffffffffffffffffff1603620000ad5760006040517f1e4fbdf7000000000000000000000000000000000000000000000000000000008152600401620000a491906200028c565b60405180910390fd5b620000be816200010760201b60201c565b5080600160006101000a81548173ffffffffffffffffffffffffffffffffffffffff021916908373ffffffffffffffffffffffffffffffffffffffff16021790555050620002a9565b60008060009054906101000a900473ffffffffffffffffffffffffffffffffffffffff169050816000806101000a81548173ffffffffffffffffffffffffffffffffffffffff021916908373ffffffffffffffffffffffffffffffffffffffff1602179055508173ffffffffffffffffffffffffffffffffffffffff168173ffffffffffffffffffffffffffffffffffffffff167f8be0079c531659141344cd1fd0a4f28419497f9722a3daafe3b4186f6b6457e060405160405180910390a35050565b600080fd5b600073ffffffffffffffffffffffffffffffffffffffff82169050919050565b6000620001fd82620001d0565b9050919050565b60006200021182620001f0565b9050919050565b620002238162000204565b81146200022f57600080fd5b50565b600081519050620002438162000218565b92915050565b600060208284031215620002625762000261620001cb565b5b6000620002728482850162000232565b91505092915050565b6200028681620001f0565b82525050565b6000602082019050620002a360008301846200027b565b92915050565b61154180620002b96000396000f3fe60806040526004361061007f5760003560e01c8063715018a61161004e578063715018a61461014c5780638da5cb5b14610163578063c9d27afe1461018e578063f2fde38b146101b757610086565b8063013cf08b1461008b5780632ddbd13a146100cd5780634914b030146100f85780636b5e17661461012357610086565b3661008657005b600080fd5b34801561009757600080fd5b506100b260048036038101906100ad9190610a92565b6101e0565b6040516100c496959493929190610b5e565b60405180910390f35b3480156100d957600080fd5b506100e261032c565b6040516100ef9190610bcd565b60405180910390f35b34801561010457600080fd5b5061010d610332565b60405161011a9190610c67565b60405180910390f35b34801561012f57600080fd5b5061014a60048036038101906101459190610db7565b610358565b005b34801561015857600080fd5b5061016161041e565b005b34801561016f57600080fd5b50610178610432565b6040516101859190610e77565b60405180910390f35b34801561019a57600080fd5b506101b560048036038101906101b09190610eca565b61045b565b005b3480156101c357600080fd5b506101de60048036038101906101d99190610f36565b61086f565b005b600360205280600052604060002060009150905080600001805461020390610f92565b80601f016020809104026020016040519081016040528092919081815260200182805461022f90610f92565b801561027c5780601f106102515761010080835404028352916020019161027c565b820191906000526020600020905b81548152906001019060200180831161025f57829003601f168201915b50505050509080600101805461029190610f92565b80601f01602080910402602001604051908101604052809291908181526020018280546102bd90610f92565b801561030a5780601f106102df5761010080835404028352916020019161030a565b820191906000526020600020905b8154815290600101906020018083116102ed57829003601f168201915b5050505050908060020154908060030154908060040154908060050154905086565b60025481565b600160009054906101000a900473ffffffffffffffffffffffffffffffffffffffff1681565b6103606108f5565b60006002600081548092919061037590610ff2565b9190505590506000600360008381526020019081526020016000209050858160000190816103a391906111dc565b50848160010190816103b591906111dc565b508381600201819055508281600301819055506000816004018190555060008160050181905550817f8492049f75adfbaa2195ae8557f4c9b1844f327b1b1b690371ac7e8527a8902d878760405161040e9291906112ae565b60405180910390a2505050505050565b6104266108f5565b610430600061097c565b565b60008060009054906101000a900473ffffffffffffffffffffffffffffffffffffffff16905090565b60006003600084815260200190815260200160002090508060020154600160009054906101000a900473ffffffffffffffffffffffffffffffffffffffff1673ffffffffffffffffffffffffffffffffffffffff166370a08231336040518263ffffffff1660e01b81526004016104d29190610e77565b602060405180830381865afa1580156104ef573d6000803e3d6000fd5b505050506040513d601f19601f8201168201806040525081019061051391906112fa565b1015610554576040517f08c379a000000000000000000000000000000000000000000000000000000000815260040161054b90611373565b60405180910390fd5b806003015442111561059b576040517f08c379a0000000000000000000000000000000000000000000000000000000008152600401610592906113df565b60405180910390fd5b60008160060160003373ffffffffffffffffffffffffffffffffffffffff1673ffffffffffffffffffffffffffffffffffffffff168152602001908152602001600020541115610620576040517f08c379a000000000000000000000000000000000000000000000000000000000815260040161061790611471565b60405180910390fd5b60008160060160003373ffffffffffffffffffffffffffffffffffffffff1673ffffffffffffffffffffffffffffffffffffffff1681526020019081526020016000205411610793576000600160009054906101000a900473ffffffffffffffffffffffffffffffffffffffff1673ffffffffffffffffffffffffffffffffffffffff166370a08231336040518263ffffffff1660e01b81526004016106c69190610e77565b602060405180830381865afa1580156106e3573d6000803e3d6000fd5b505050506040513d601f19601f8201168201806040525081019061070791906112fa565b9050821561072f57808260040160008282546107239190611491565b9250508190555061074b565b808260050160008282546107439190611491565b925050819055505b808260060160003373ffffffffffffffffffffffffffffffffffffffff1673ffffffffffffffffffffffffffffffffffffffff16815260200190815260200160002081905550505b827f88d35328232823f54954b6627e9f732371656f6daa40cb1b01b27dc7875a7b473384600160009054906101000a900473ffffffffffffffffffffffffffffffffffffffff1673ffffffffffffffffffffffffffffffffffffffff166370a08231336040518263ffffffff1660e01b81526004016108129190610e77565b602060405180830381865afa15801561082f573d6000803e3d6000fd5b505050506040513d601f19601f8201168201806040525081019061085391906112fa565b604051610862939291906114d4565b60405180910390a2505050565b6108776108f5565b600073ffffffffffffffffffffffffffffffffffffffff168173ffffffffffffffffffffffffffffffffffffffff16036108e95760006040517f1e4fbdf70000000000000000000000000000000000000000000000000000000081526004016108e09190610e77565b60405180910390fd5b6108f28161097c565b50565b6108fd610a40565b73ffffffffffffffffffffffffffffffffffffffff1661091b610432565b73ffffffffffffffffffffffffffffffffffffffff161461097a5761093e610a40565b6040517f118cdaa70000000000000000000000000000000000000000000000000000000081526004016109719190610e77565b60405180910390fd5b565b60008060009054906101000a900473ffffffffffffffffffffffffffffffffffffffff169050816000806101000a81548173ffffffffffffffffffffffffffffffffffffffff021916908373ffffffffffffffffffffffffffffffffffffffff1602179055508173ffffffffffffffffffffffffffffffffffffffff168173ffffffffffffffffffffffffffffffffffffffff167f8be0079c531659141344cd1fd0a4f28419497f9722a3daafe3b4186f6b6457e060405160405180910390a35050565b600033905090565b6000604051905090565b600080fd5b600080fd5b6000819050919050565b610a6f81610a5c565b8114610a7a57600080fd5b50565b600081359050610a8c81610a66565b92915050565b600060208284031215610aa857610aa7610a52565b5b6000610ab684828501610a7d565b91505092915050565b600081519050919050565b600082825260208201905092915050565b60005b83811015610af9578082015181840152602081019050610ade565b60008484015250505050565b6000601f19601f8301169050919050565b6000610b2182610abf565b610b2b8185610aca565b9350610b3b818560208601610adb565b610b4481610b05565b840191505092915050565b610b5881610a5c565b82525050565b600060c0820190508181036000830152610b788189610b16565b90508181036020830152610b8c8188610b16565b9050610b9b6040830187610b4f565b610ba86060830186610b4f565b610bb56080830185610b4f565b610bc260a0830184610b4f565b979650505050505050565b6000602082019050610be26000830184610b4f565b92915050565b600073ffffffffffffffffffffffffffffffffffffffff82169050919050565b6000819050919050565b6000610c2d610c28610c2384610be8565b610c08565b610be8565b9050919050565b6000610c3f82610c12565b9050919050565b6000610c5182610c34565b9050919050565b610c6181610c46565b82525050565b6000602082019050610c7c6000830184610c58565b92915050565b600080fd5b600080fd5b7f4e487b7100000000000000000000000000000000000000000000000000000000600052604160045260246000fd5b610cc482610b05565b810181811067ffffffffffffffff82111715610ce357610ce2610c8c565b5b80604052505050565b6000610cf6610a48565b9050610d028282610cbb565b919050565b600067ffffffffffffffff821115610d2257610d21610c8c565b5b610d2b82610b05565b9050602081019050919050565b82818337600083830152505050565b6000610d5a610d5584610d07565b610cec565b905082815260208101848484011115610d7657610d75610c87565b5b610d81848285610d38565b509392505050565b600082601f830112610d9e57610d9d610c82565b5b8135610dae848260208601610d47565b91505092915050565b60008060008060808587031215610dd157610dd0610a52565b5b600085013567ffffffffffffffff811115610def57610dee610a57565b5b610dfb87828801610d89565b945050602085013567ffffffffffffffff811115610e1c57610e1b610a57565b5b610e2887828801610d89565b9350506040610e3987828801610a7d565b9250506060610e4a87828801610a7d565b91505092959194509250565b6000610e6182610be8565b9050919050565b610e7181610e56565b82525050565b6000602082019050610e8c6000830184610e68565b92915050565b60008115159050919050565b610ea781610e92565b8114610eb257600080fd5b50565b600081359050610ec481610e9e565b92915050565b60008060408385031215610ee157610ee0610a52565b5b6000610eef85828601610a7d565b9250506020610f0085828601610eb5565b9150509250929050565b610f1381610e56565b8114610f1e57600080fd5b50565b600081359050610f3081610f0a565b92915050565b600060208284031215610f4c57610f4b610a52565b5b6000610f5a84828501610f21565b91505092915050565b7f4e487b7100000000000000000000000000000000000000000000000000000000600052602260045260246000fd5b60006002820490506001821680610faa57607f821691505b602082108103610fbd57610fbc610f63565b5b50919050565b7f4e487b7100000000000000000000000000000000000000000000000000000000600052601160045260246000fd5b6000610ffd82610a5c565b91507fffffffffffffffffffffffffffffffffffffffffffffffffffffffffffffffff820361102f5761102e610fc3565b5b600182019050919050565b60008190508160005260206000209050919050565b60006020601f8301049050919050565b600082821b905092915050565b60006008830261109c7fffffffffffffffffffffffffffffffffffffffffffffffffffffffffffffffff8261105f565b6110a6868361105f565b95508019841693508086168417925050509392505050565b60006110d96110d46110cf84610a5c565b610c08565b610a5c565b9050919050565b6000819050919050565b6110f3836110be565b6111076110ff826110e0565b84845461106c565b825550505050565b600090565b61111c61110f565b6111278184846110ea565b505050565b5b8181101561114b57611140600082611114565b60018101905061112d565b5050565b601f821115611190576111618161103a565b61116a8461104f565b81016020851015611179578190505b61118d6111858561104f565b83018261112c565b50505b505050565b600082821c905092915050565b60006111b360001984600802611195565b1980831691505092915050565b60006111cc83836111a2565b9150826002028217905092915050565b6111e582610abf565b67ffffffffffffffff8111156111fe576111fd610c8c565b5b6112088254610f92565b61121382828561114f565b600060209050601f8311600181146112465760008415611234578287015190505b61123e85826111c0565b8655506112a6565b601f1984166112548661103a565b60005b8281101561127c57848901518255600182019150602085019450602081019050611257565b868310156112995784890151611295601f8916826111a2565b8355505b6001600288020188555050505b505050505050565b600060408201905081810360008301526112c88185610b16565b905081810360208301526112dc8184610b16565b90509392505050565b6000815190506112f481610a66565b92915050565b6000602082840312156113105761130f610a52565b5b600061131e848285016112e5565b91505092915050565b7f496e73756666696369656e7420746f6b656e7320746f20766f74650000000000600082015250565b600061135d601b83610aca565b915061136882611327565b602082019050919050565b6000602082019050818103600083015261138c81611350565b9050919050565b7f4974207761732065787069726564000000000000000000000000000000000000600082015250565b60006113c9600e83610aca565b91506113d482611393565b602082019050919050565b600060208201905081810360008301526113f8816113bc565b9050919050565b7f596f75206861766520616c726561647920766f746564206f6e2074686973207060008201527f726f706f73616c00000000000000000000000000000000000000000000000000602082015250565b600061145b602783610aca565b9150611466826113ff565b604082019050919050565b6000602082019050818103600083015261148a8161144e565b9050919050565b600061149c82610a5c565b91506114a783610a5c565b92508282019050808211156114bf576114be610fc3565b5b92915050565b6114ce81610e92565b82525050565b60006060820190506114e96000830186610e68565b6114f660208301856114c5565b6115036040830184610b4f565b94935050505056fea264697066735822122026b17b1ddb4129d89e9c66e85c1b7fad42ea7361de568f53e96cb0620c93402d64736f6c63430008140033",
  "linkReferences": {},
  "deployedLinkReferences": {}
}